:100000000C9444020C9461020C9461020C94610201
:100010000C9461020C9461020C9461020C946102D4
:100020000C9461020C9461020C94E7200C94BB21A7
:100030000C941A1B0C9461020C9461020C946102E2
:100040000C9461020C9461020C9461020C946102A4
:100050000C9461020C94A11B0C9461020C9461023B
:100060000C9461020C9461020C9461020C94610284
:100070000C9461020C9461020C9461020C94610274
:100080000C9461020C9461020C9461020C94610264
:100090000C9461020C9461020C9461020C94610254
:1000A0000C9461020C9461020C946102290014000A
:1000B0001A000800150017001C0018000C001200A0
:1000C00013002A00E00004001600070009000A00DF
:1000D0000B000D000E000F002D002800E1001D0098
:1000E0001B00060019000500110010003600370043
:1000F0003800E10050004F00E300015100002C00E7
:1001000000000251E20000005100520029001400DA
:100110001A000800150017001C0018000C0012003F
:1001200013002A00E00004001600070009000A007E
:100130000B000D000E000F002D002800E1001D0037
:100140001B000600190005001100100036003700E2
:100150003800E10050004F00E300005100002C0087
:1001600000000351E2000000510052002900140079
:100170001A000800150017001C0018000C001200DF
:1001800013002A00E00004001600070009000A001E
:100190000B000D000E000F002D002800E1001D00D7
:1001A0001B00060019000500110010003600370082
:1001B0003800E10050004F00E300035100002C0024
:1001C00000000051E200000051005200290014001C
:1001D0001A000800150017001C0018000C0012007F
:1001E00013002A00E00004001600070009000A00BE
:1001F0000B000D000E000F002D002800E1001D0077
:100200001B00060019000500110010003600370021
:100210003800E10050004F00E300005100002C00C6
:1002200000000051E20000005100520000000000F8
:10023000000000002A2B2800000000000000000041
:100240000000000000000029000000002C1E3420E7
:10025000212224342627252E362D3738271E1F200D
:100260002122232425263333362E37381F04050652
:100270000708090A0B0C0D0E0F1011121314151696
:100280001718191A1B1C1D2F3130232D3504050694
:100290000708090A0B0C0D0E0F1011121314151676
:1002A0001718191A1B1C1D2F3130354C0000000087
:1002B000000000000000000000000000000000003E
:1002C000000000000000000000000000000000002E
:1002D0007E0F00D4FFFFFFC70000007814036D00FD
:1002E000650069007300680069003000300031006B
:1002F00000000A036D002E006B006900000004037B
:10030000090409025B00030100A0FA0904000001CE
:1003100003010100092111010001224000070581AC
:100320000308000109040100020300000009211173
:1003300001000122220007058203200001070503B6
:10034000032000010904020001030000000921113B
:1003500001000122B60007058403200001120100FC
:100360000200000008434D010000010102000106E7
:1003700060FF0961A1010962150026FF0095207543
:100380000881020963150026FF0095207508910277
:10039000C005010902A10185020901A10005091991
:1003A000012908150025019508750181020501093B
:1003B0003009311581257F950275088106093815A8
:1003C00081257F950175088106050C0A3802158183
:1003D000257F950175088106C0C005010980A1012E
:1003E000850319012AB700150126B700950175107C
:1003F0008100C0050C0901A101850419012AA00290
:10040000150126A002950175108100C0050109069D
:10041000A1018506050719E029E7150025019508C2
:10042000750181020507190029EF1500250195F0D6
:1004300075018102050819012905950575019102CB
:10044000950175039101C005010906A10105071970
:10045000E029E715002501950875018102950175D0
:100460000881010507190029FF150026FF009506E0
:100470007508810005081901290595057501910286
:10048000950175039101C00011241FBECFEFDAE082
:10049000DEBFCDBF11E0A0E0B1E0E2EAF8E402C0C7
:1004A00005900D92A839B107D9F722E0A8E9B1E08B
:1004B00001C01D92A73AB207E1F70E9419110C94EE
:1004C00026240C94000084E0089581E0089581E0E2
:1004D00008950E946702089508950E946C0208958D
:1004E000A5E0B0E0E6E7F2E00C94922349835A835A
:1004F00030919F0189819A81311119C0662399F049
:10050000222389F00E94F307182F682F89819A818E
:100510000E94CF0769817A81812F0E940518259654
:10052000E3E00C94AE230E94E107182FF3CF0E9462
:10053000F30769817A81F1CFFC01262F4081518137
:100540006281738184810E947002089581E0089520
:10055000CF93DF93EC0160E00E949C02BE010E94F9
:100560006D02DF91CF910895E1E0F0E0DF0102C07C
:10057000AA0FBB1F6A95E2F7BD01DF0102C0AA0FF7
:10058000BB1F4A95E2F76A2B01C0EE0F2A95EAF7E6
:10059000962F9823961302C08E2B0895E0958E23F4
:1005A0000895242F462F682F8091B2010E94B40233
:1005B0000E942F0708950E94980F08950E949C0F93
:1005C000089508950E94C1060E94E1022FEF84E37E
:1005D0009CE0215080409040E1F700C00000089569
:1005E0000E94E2020E94C51B08950E94E2020E943E
:1005F000D61B08950F931F93CF93DF938C0161E077
:100600000E949C02EC01B8010E940F14811106C0E7
:1006100080E0DF91CF911F910F910895B801CE0135
:100620000E9469028823A1F3B801CE010E944B19F0
:10063000882371F3B801CE010E94FE14882341F390
:10064000B801CE010E94BD18882311F3F801828100
:10065000882361F0CA35FDE5DF0701F158F4C115C3
:10066000ECE5DE0791F0CE3DDC4591F0C8010E943B
:100670006502CFCFCC358DE5D80769F090F0C73A49
:10068000DD45A1F70E94F502C3CF0E94F002C0CF62
:100690000E94AC0CF7CF0E94E60BE8CF0E94F00B53
:1006A000E5CF0E94F40BE2CF0E94F61A0E9471037C
:1006B00008950E9475030E94FB1A089508950E94F0
:1006C0005E03089581E008950E94620308950895ED
:1006D000CF93C82F0E945F038C2F0E946403CF9199
:1006E000089580E00E94680308950E94A7190E945F
:1006F00068030895CF930E94A719C82F80919A018B
:100700008C1779F0C0939A010E94861B60939B011D
:1007100070939C0180939D0190939E018C2F0E9469
:100720006803CF910895ABE0B0E0E9E9F3E00C9401
:1007300093234F83588769877A878B8761110E943B
:10074000310B1E821D8285E0FE013796DE01119677
:1007500001900D928A95E1F78C819D81892B61F43E
:1007600049815A816B817C818D819E810E945A0AC8
:100770002B96E2E00C94AF2389819A8189238F3FE5
:1007800079F3CE0101960E94A6028111E9CFF0CF44
:10079000FC01808191810E9420080895CF93C82F89
:1007A0008823B9F08CEF8C0F813AA8F46C2F8091DC
:1007B0000001909101010E941C1A882329F08C2FBE
:1007C0000E94F10A0E94520B8C2F0E94E90A0E949B
:1007D000520BCF91089580E28C0F883048F4C77097
:1007E00081E001C0880FCA95EAF70E94140BEFCF91
:1007F000EBE5EC0FE33040F4F0E0EB5BFE4F808183
:1008000090E00E94DC19E5CFE8E5EC0FE73150F409
:10081000F0E0EE0FFF1FE95EFE4F808191810E94A4
:10082000F219D7CFC03FA8F28C2F0E949D110E94D1
:100830007012CFCF882379F19CEF980F913A28F46A
:100840000E94F10A0E94520B089590E2980F98308E
:1008500050F4877091E001C0990F8A95EAF7892FCB
:100860000E941A0BEFCF9BE5980F933028F490E08D
:1008700080E00E94DC19089598E5980F973128F4DC
:1008800090E080E00E94F2190895803F20F00E94DD
:10089000F7110E94701208951F93CF93DF93182FC2
:1008A000EB010E94CE03209739F4812F0E941A0495
:1008B000DF91CF911F9108958FE99FE00197F1F7A4
:1008C00000C000002197EFCF70E060E0893311F4A1
:1008D00060E570E00E944C040895882321F00E9496
:1008E000140B0E94520B0895882321F00E941A0BCA
:1008F0000E94520B0895B0E0A0E0E1E8F4E00C940F
:100900008C236C01D62FC72FFC011281F580F29445
:100910009FE0F9220E940A0BE82E8823B9F0E12E0D
:100920001123A1F08C2F807F803421F080E28D0F85
:100930008830D0F08091850282FF16C082E00E944C
:10094000B50B0E940A0B91E0E82EE926BC2EB2946A
:100950008FE0B822FBE0FB1508F468C0EB2DF0E057
:10096000E85DFB4D0C947623E12CF0CF0C2F0F703B
:10097000C07F11F00295007F112399F0002359F0F8
:1009800080E28D0F883010F0D11107C0802F0E94B7
:10099000140B0E94520B8D2F41C0802F0E94240BFC
:1009A000F8CF8D2F0E941A04002309F43FC080E283
:1009B0008D0F883010F0D11104C0802F0E941A0BC7
:1009C00003C0802F0E942A0B0E94520B2FC00C2FB5
:1009D0000F70C07FC03211F00295007FDD2381F0DF
:1009E000D13009F463C0112309F46DC0FF2009F46C
:1009F00063C0F601858180FFCECF8F7085835CC098
:100A00008091850282FD33C0112359F0002329F023
:100A1000802F0E94140B0E94520B80E00E94CE0394
:100A200005C080E00E941A040111C7CFEB2DE850E9
:100A3000FF0B349720F40E94A7190E946803EE2050
:100A400089F00E94060B80FD0DC0F60112820E9403
:100A5000000B0E944307C6010E9481060E94000B02
:100A60000E944F07CDB7DEB7E9E00C94A82311230D
:100A700089F0F11006C00E94340B802B0E946D0497
:100A8000D5CF21E0F212F7CF0E94340B802B0E94C9
:100A90003B0BCCCFF11006C00E94480B802F0E9468
:100AA0007404C4CF31E0F31609F2F6CF112331F00C
:100AB00085E08F1508F4BACF802FE0CF94E09F1522
:100AC00008F4B4CFEBCFFF2049F3D93349F4FFEF5B
:100AD00027EE33E0F15020403040E1F700C0000045
:100AE0008D2F0E941A04A2CF8C2F86958695837035
:100AF00069F0813009F09ACF8D2F9C2F93701111DE
:100B000002C090E080E00E94F21990CF8D2F9C2FC0
:100B10009370111102C090E080E00E94DC1986CF32
:100B20008D2F112329F00E949D110E9470127ECFFB
:100B30000E94F711FACF8C2F837079F5111176CFBF
:100B40004D2F429546954770440F440F8D2F8F705F
:100B5000042E01C0880F0A94EAF72D2F2071D4FFCC
:100B600007C02FE030E001C0220F4A95EAF7209538
:100B7000C695C695C370822BC23049F058F4C13077
:100B800019F00E941D0752CF0E9417074FCF0E94F5
:100B900023074CCF0E94140749CF8695112311F0EB
:100BA0008C2F8170882309F441CF4D2F42954695B3
:100BB0004770440F440F8D2F8F70042E01C0880F93
:100BC0000A94EAF72D2F2071D4FF07C02FE030E000
:100BD00001C0220F4A95EAF72095C695C695C370C5
:100BE000822BC23049F058F4C13019F00E946E07D0
:100BF0001DCF0E9468071ACF0E94740717CF0E946A
:100C00002F0714CFCF70112329F08C2F0E94430798
:100C10008D2F34CF8D2F0E9474048C2F0E944F078C
:100C200005CFD23F51F160F4D03FB9F0D13F81F010
:100C3000112309F449C0F110AECE8C2F8F7121C061
:100C4000D33F11F1D43FA1F78091850282FD26C0E8
:100C50008C2F8F71112311F314C0112349F084E0FC
:100C60008F1508F4E3CE8C2F8F710E945C07DECEC7
:100C700095E09F1508F4DACEF6CF8C2F8F71111105
:100C8000CDCF0E944307D2CE112329F08C2F8F7134
:100C90000E943A07CBCE0E943607C8CE112349F0F6
:100CA000CF718C2F0E94430763E08C2F0E94970B1B
:100CB000BDCE81E00E94B50BE1E0EF1508F0B6CEA5
:100CC00082E00E94B50BB2CEF110FFCE8C2F8F7157
:100CD000A5CF0F931F93CF93DF93EC0168817981A8
:100CE0008A810E942B088C010E947A070E941307B8
:100CF000B801CE010E947B04DF91CF911F910F912B
:100D00000895CF93DF93EC018B819C81892B29F08F
:100D10008881998189238F3F51F4DF91CF91089584
:100D2000CE010E946906CE010E94A802F6CFCE0134
:100D30000E94FA028111F4CF0E940A0B882369F302
:100D40008A81882351F38091850282FFE6CF82E079
:100D50000E94B50BE2CF90E080E00E94DC1990E0A9
:100D600080E00E94F2190E94310B0E94520B0E94F7
:100D70008C120E94701208950E94F90A0E94AB061C
:100D800008950E94210B0E94BC06089592959F70C1
:100D9000963091F058F4925F9F70923058F4803FF3
:100DA00019F030F4883E30F481E008959A5FF4CF72
:100DB000843FD1F380E00895883EB0F3813FD1F7BE
:100DC000F3CFFC0183819481892B29F0808191816B
:100DD00089238F3F11F480E00895808191810E94E2
:100DE00020080E94C6060895A5E0B0E0EAEFF6E00C
:100DF0000C9493232596E2E00C94AF23A6E0B0E098
:100E0000E4E0F7E00C9493232696E2E00C94AF2301
:100E100008950E94080708950E9409078093B3016E
:100E20000E94AB06089508950E940C0708959091C2
:100E3000B301892B0E940C0708959091B301892377
:100E40000E940C0708959091B30189270E940C0716
:100E500008950E94080708950E94290708950E9496
:100E60002C078093B2010E94AB06089580E00E9497
:100E70002F07089591E001C0990F8A95EAF7892F0D
:100E80000E942F07089521E030E001C0220F8A95CB
:100E9000EAF78091B201822B0E942F07089521E08A
:100EA00030E001C0220F8A95EAF720958091B201C7
:100EB00082230E942F07089521E030E001C0220F15
:100EC0008A95EAF78091B20182270E942F07089540
:100ED0009091B201892B0E942F0708959091B20141
:100EE00089230E942F0708959091B20189270E94BB
:100EF0002F0708950895262F277091E001C0990FBC
:100F00002A95EAF723E0769567952A95E1F7FB01A4
:100F1000EE0FFF1FE60FF71FE40FF51F50E040E054
:100F2000682F70E08191DF0111979B01042E02C0B0
:100F3000369527950A94E2F72170219528272923D1
:100F400028272C934F5F5F4F4330510559F7089581
:100F5000A82FA77023E0969587952A95E1F7FC01C5
:100F6000EE0FFF1FE80FF91FE60FF71F50E040E0FC
:100F700080E0219130E00A2E02C0369527950A9430
:100F8000E2F721703327042E01C0220F0A94EAF7FA
:100F9000822B4F5F5F4F4330510559F70895262F3D
:100FA000943070F48C3060F4682F70E08CE0989F7F
:100FB000600D711D112440EA51E0822F0E947B07D1
:100FC0000895292F943068F48C3058F490E060EA4A
:100FD00071E03CE0239F800D911D11240E94A80721
:100FE000089580E00895CF92DF92FF920F931F93B0
:100FF000CF93DF936C010091B2018091B301082B74
:10100000C7E0D0E010E0FC2EC8010C2E02C0959580
:1010100087950A94E2F780FD0CC02197A0F7F12C88
:101020008F2DDF91CF911F910F91FF90DF90CF9087
:101030000895B6018C2F0E94730E019771F3F0CFC3
:10104000CF93DF93EC010E94F307BE010E94730E61
:10105000DF91CF9108951F93CF93DF93EB01909190
:101060009F01992339F0CB010E942008DF91CF9195
:101070001F910895882369F0CB010E94F307182F70
:10108000682FCE010E94CF07BE01812F0E94730EF0
:10109000EDCFCB010E94E107182FF6CF1F93CF931E
:1010A000DF93C091B40116E08091B5018C1304C0A8
:1010B000DF91CF911F910895D0E01C9FF0011D9FFB
:1010C000F00D1124EA54FE4F4081518162817381F9
:1010D000848195810E94FE062196C770E5CF4091DC
:1010E000E6015091E7016091E8017091E90180917A
:1010F000EA019091EB010E94FE0608951F93CF93A1
:10110000DF938091EB01807F09F049C08091E80175
:10111000882309F444C08091B401C091B501609165
:10112000E6017091E701A091E901B091EA01D62FA3
:10113000D72316E0C81799F190E0109711F0DF3F20
:1011400019F401968770F6CF189F9001199F300D02
:101150001124F901EA54FE4F41814713F2CF408137
:101160004613EFCF42814111ECCF438154814A1B9A
:101170005B0B483C510528F78091EB018F70806133
:101180008093EB01F901E554FE4F80818F708061FF
:10119000808386EE91E00E9481060E944E08DF91D6
:1011A000CF911F910895A1E1B0E0E9EDF8E00C9432
:1011B0008B238C0185E0F801DE011D9601900D92D4
:1011C0008A95E1F7F801E28086EEC82E81E0D82EFC
:1011D0006091E9017091EA016115710509F44EC150
:1011E0009091E6012091E701892F82238F3F09F436
:1011F00045C140815181A380B480F090E801F501A0
:10120000E61BF70BFF2009F4EAC08091EB01382FB1
:10121000307FE83CF10508F0A3C031116DC0FE2C11
:10122000251316C0941314C0E11012C08F70806192
:101230008093EB010E946F08C6010E948106809195
:10124000EB01F80185838F2D6196EAE00C94A723CA
:10125000A114B10429F0842F85238F3F09F027C101
:1012600080E0F82FF170DF2E80FF3CC08091B40148
:101270002091B50136E0821315C04D875E878D85BC
:101280009E850E942008292F22952F702230F0F091
:10129000243018F59F70F1F0F8019581907FD1F41A
:1012A000D12C1EC090E0389FF001399FF00D112421
:1012B000EA54FE4F6181651306C06081641303C068
:1012C0006281E6120FC001968770D5CF9F7011F032
:1012D000882331F3805E883018F3C8010E948106AC
:1012E000FD2CB1CFEE2009F4AECF8091EB018160EF
:1012F0008093EB01F12CA7CF251306C0941304C0F3
:10130000F801EE2009F487C0C8010E94E106882395
:1013100019F1EE2009F18091EB01803270F02091FB
:10132000E6013091E70138872F831986BB86AA86AC
:101330008C87CE0107960E94810686E0F801A6EE12
:10134000B1E001900D928A95E1F70E947E080E941B
:101350006F08FF24F39477CFC8010E948106F9CF6C
:10136000311113C07A2DB98AA88A6E2D89890E94FD
:10137000F40686EE91E00E94810686E0F601119265
:101380008A95E9F70E946F08B5CF25130FC0941313
:101390000DC0E1100BC0F8018583C8010E948106D1
:1013A00086E0F60111928A95E9F74DCFC8010E94B7
:1013B000E106882389F2EE2079F28091EB018032F8
:1013C00008F4BBCF2091E6013091E7013A832983ED
:1013D0001B82BD82AC828E83CE010196ACCFE83CED
:1013E000F10508F03EC0FE2CEE2009F4B5CF251320
:1013F0002AC0941328C08091EB0180FD1BC0982F58
:10140000907FC1F0F8018583903F31F0982F907F55
:10141000905F8F70892B8583C8010E94810686E0CA
:10142000F801A6EEB1E001900D928A95E1F70E94D5
:101430006F0809CF86E0F801A6EEB1E001900D92A9
:101440008A95E1F700CFC8010E94E106811175CFAE
:101450008091EB0181608093EB01C8010E948106BD
:10146000F2CE7A2DB98AA88A6E2D89890E94F40657
:1014700086E0F60111928A95E9F7D9CFEE2009F4BA
:101480006BCFC8010E94E106F82E882309F464CFCF
:1014900086E0F801A6EEB1E001900D928A95E1F7A1
:1014A00086EE91E00E94C8030E947E08C0CF81E0D2
:1014B0008E25D7CEACE0B0E0E0E6FAE00C949223C3
:1014C0004F83588769877A878B879C87CE010796D9
:1014D0000E94D308882369F08A859B85892B39F07F
:1014E0004F815885842F85238F3F09F06BC016E00C
:1014F0005FC086E0FE013796DE01119601900D92E5
:101500008A95E1F78A859B85892B89F38F81988558
:1015100089238F3F61F32091B50130E0C901019625
:10152000877099274091B4014817190671F40E94F9
:10153000C1061092B5011092B40186E0E6EEF1E02A
:10154000DF011D928A95E9F7D2CF96E0929FD001F4
:10155000939FB00D1124AA54BE4FFE013196019005
:101560000D929A95E1F78093B5010E944E08BFCF86
:10157000819FC00111248A549E4F0E94D308882362
:10158000E9F0E091B4011E9FF0011124EA54FE4FEE
:101590004081518162817381848195810E94FE0620
:1015A0008091B40190E00196877099278093B401EF
:1015B0008091B4019091B5018913DACF2C96E3E0C4
:1015C0000C94AE2369857A858B859C850E94FE06E6
:1015D0008ECF682F80910001909101010E949C1A8A
:1015E0000895682F80910001909101010E94AA1A2C
:1015F000089580910001909101010E94B81A089508
:1016000080910C02859585958595089580910C02B1
:101610008770089590910C02977081E009F480E042
:10162000089580912F02089590912F02892B809325
:101630002F020895809590912F02982390932F0266
:10164000089510922F02089590912E02892B809375
:101650002E020895809590912E02982390932E0249
:10166000089510922E02089580910D020895089514
:101670000E94370B08959091850292FF08C09091C7
:101680000D02981721F080930D020E94380B0895E7
:1016900080910D02882329F010920D0280E00E94B3
:1016A000380B0895CF93DF93E0910001F091010191
:1016B00080912F028083E0910001F09101018081EF
:1016C00090912E02892B808390910D02992381F0B5
:1016D000E0910001F09101018081892B808380914C
:1016E0000001909101010E94081A81110E94480B8B
:1016F000C0910001D091010140E250E06CEE71E038
:10170000CE010E94CE23892B59F080E2FE01ACEE7F
:10171000B1E001900D928A95E1F7CE010E94B419D3
:10172000DF91CF91089508950E94930B08959091B1
:10173000850292FF11C098E0899F90011124622BCD
:1017400060930C020E94430780910C028595859559
:1017500085950E94940B08950E9443070895109266
:101760000C0280E00E94940B089590910C028095E9
:10177000892380930C02282F277091F4282F082E9C
:10178000000C330B9217130659F09091850292FFCB
:1017900007C08595859585950E944F070E94AF0BE0
:1017A00008959091850292FB222720F9281769F06D
:1017B00080FB92F99093850280918402909185023A
:1017C0000E94230C82E00E94B50B0895809185024F
:1017D00082FB882780F991E089270E94D10B089528
:1017E00081E00E94D10B089580E00E94D10B089502
:1017F0006FEF7FEF90E080E00E941024089590E06A
:1018000080E00E94EC23883E9E4F19F40E94AA13A8
:10181000089580E0089582E090E00E94E423089516
:1018200083E090E00E94E4230895CF9384E090E069
:101830000E94E423C82F82E290E00E94E423982FC4
:101840008C2FCF910895CF93C92F682F84E090E01B
:101850000E94F2236C2F82E290E00E94F223CF914B
:101860000895AB01BC018FE090E00E94042408952C
:10187000AB01BC0183E190E00E940424089560E084
:1018800070E0CB010E94380C089560E070E0CB015D
:101890000E94310C0E943F0C089568EE7EEF90E0AC
:1018A00080E00E94102460E082E090E00E94F22339
:1018B00060E083E090E00E94F2231092B30160E0C8
:1018C00084E090E00E94F22364E082E290E00E94D3
:1018D000F22360E085E090E00E94F22360E086E081
:1018E00090E00E94F2236FEF87E090E00E94F223E5
:1018F00040E050E0BA0188E090E00E94042460E0FB
:101900008DE090E00E94F22340E050E0BA0188E1CF
:1019100090E00E94042460E087E190E00E94F223BE
:1019200040E050E0BA018CE190E00E94042470E0B5
:1019300060E080E290E00E94102440E050E0BA01B4
:1019400088E190E00E94042480E00E94C3130E947A
:10195000F2130E94450C08950E944D0C0895682FC3
:101960008EE090E00E94F22308950E94861B60930F
:101970003E0270933F028093400290934102609335
:101980003A0270933B0280933C0290933D0208958B
:10199000089508950E94C90C089508950E94CD0CE1
:1019A00008958DE59FE00E949D190E94C80C0E9439
:1019B000CA0C089581E008950E94DA0C08950895F4
:1019C00008950E94DF0C0E94E00C08950E947C0F95
:1019D0000E94670308950E94711B0E9402140E94D6
:1019E00061100E94E60C0E94CE0C0895AAE0B0E0BF
:1019F000ECEFFCE00C9488230E94771022E3822E07
:101A000022E0922E640110E0F601E190F1906F0166
:101A1000812F0E949F0F1F5F143009F449C0E81600
:101A2000F90691F38091420281FD0E94A80F0E9465
:101A3000DC0C782E10E0812F0E949F0F7C01F401B6
:101A4000A190B1904F018A159B0561F1A826BF2492
:101A500000E0CC24C394D12CC5018C219D21892B7D
:101A6000C1F07720B1F00E831F8321E0C7018C21E4
:101A70009D21892B09F420E028870E947A1B816030
:101A8000782F9A8789874E815F8168858A850E9431
:101A900093030F5FCC0CDD1C0C30F1F6F401329790
:101AA000F182E0821F5F143031F60E94B50C22C033
:101AB000E816F90609F0B6CF0E947A1B8C018091D6
:101AC00030029091310208171907A1F08FEF898336
:101AD0008A831B820E947A1B8160782F9D838C836E
:101AE00049815A816B818D810E9493031093310249
:101AF000009330020E94AE120E947A032A96EDE013
:101B00000C94A423CF93DF930E94780EEC018115EF
:101B100021E5920708F042C0811530E5930708F0EF
:101B20009FC0883E910530F5803E910508F094C035
:101B3000883A910588F4853A910508F086C081308D
:101B4000910509F489C0009709F486C0049708F04C
:101B500083C0D0E0C0E080C08F3B9105D0F7C85A69
:101B6000D0E0CC0FDD1FC85BDE4F0990D881C02DBF
:101B7000D46472C0811540E2940750F4C11581E02D
:101B8000D80708F069C0C03FD10518F3D06564C01C
:101B900081159044F0F2DF70D06A5EC0811535E5A2
:101BA000930718F5811544E5940708F085C0C11521
:101BB00083E5D80708F06CC0C11522E5D20708F408
:101BC00062C0CE018370992721E030E002C0220F6D
:101BD000331F8A95E2F7C695C69580E2C89FE0015B
:101BE0001124C22BD32BDC6837C0811539E593074C
:101BF000A8F4811548E5940708F063C0C11586E58F
:101C0000D80708F0A6CF8C2F0E941A0FC82FD0E05B
:101C1000DC2FCC27CC27DF71D0621EC081152AE5CE
:101C2000920708F453C090568115904208F091CF66
:101C30008D2F8F710E941A0F90E0982F8827882788
:101C40009F719C012C2BE901E7CFC55AD0E0CA58FF
:101C5000DE4FC881D0E0D064CE01DF91CF910895EE
:101C60008370992721E030E002C0220F331F8A954C
:101C7000E2F7C695C69540E2C49FE0011124C22B4D
:101C8000D32BDD68E9CFDC2FCC27C16FD06AE4CF3E
:101C9000CE018370992721E030E002C0220F331F6C
:101CA0008A95E2F7C695C69540E2C49FE0011124EB
:101CB000C22BD32BDA68D0CFD82FCC27C46FD06AF1
:101CC000CBCFD82FCC27C06FD06AC6CF8F700E94E1
:101CD0001A0F34E0D695C7953A95E1F7CF709C2F4F
:101CE000EC01D069B9CF0E9405180E94820D0895B9
:101CF00082389105B9F1B0F48133910509F47DC0C2
:101D000048F48932910509F46DC08A32910509F4CD
:101D10007BC008958533910509F45FC0893391052F
:101D200009F10895833E9105D9F138F4803E91057B
:101D300029F1823E910579F10895863E9105D9F108
:101D4000873E910509F43EC0843E910541F52091FE
:101D5000850221FF24C08091840284FD19C087EE92
:101D600090E0089520918402237009F05AC02091D8
:101D7000850223FF14C089E290E008952091840237
:101D800020FD38C03091850230FF09C024FF43C0D8
:101D900090E080E008952091840222FDF7CF08951D
:101DA0002091840222FD3AC03091850230FD39C075
:101DB00024FFF5CFEDCF2091840223FFF0CF24FD47
:101DC000E7CFCDCF2091840223FD2EC03091850234
:101DD00031FFEECF84EE90E008952091840225FF3C
:101DE000DECFC9CF2091840225FD21C0209185023C
:101DF00023FFD5CF89E390E0D2CF2091840226FF44
:101E0000CECF8AE290E008952091840226FFC7CFCA
:101E100081E390E0089583EE90E0089582EE90E0F3
:101E2000089580EE90E0089586EE90E0089585E3B1
:101E300090E008959091840292FF06C0282F2871A7
:101E40002830F9F4877F846093FF06C0282F28711B
:101E50002831F1F4877E84612091850220FF06C03D
:101E6000382F38713830D9F4877F816021FF06C060
:101E7000282F28712831D1F4877E816194FD877ED7
:101E80000895282F24712430F9F68B7F8860DCCFE9
:101E9000282F2471243101F78B7E8861DDCF382F04
:101EA0003171313019F78E7F8860E0CF282F217192
:101EB000213121F78E7E8861E1CF80E008950E9474
:101EC000F80B08950E9477102FEF86E791E02150DC
:101ED00080409040E1F700C000000E94771080E051
:101EE0000E949F0F80FF04C00E945F0F0E94C51BCD
:101EF00008950E94620F08950E94FF0B811102C095
:101F00000E94AC0C0E940B0C809342020E94150CA4
:101F100090938502809384020E94790F0E94100C96
:101F20000E9414078091B2010E942C070895089521
:101F30000E94970F089508950E949B0F0895E82F1F
:101F4000F0E0EE0FFF1FE257FD4F80819181089571
:101F5000089580EA8A95F1F7089500C008950E94D7
:101F6000A90F0895F894E82FE295EF70F0E031A101
:101F7000282F2F7081E090E001C0880F2A95EAF7A2
:101F8000982F9095932391A392A1892B82A3789463
:101F90000895CF93DF93C9E7D1E089918F3F11F086
:101FA0000E94B20F81E0C538D807B9F784EF0E94CC
:101FB000B20F84E30E94B20F86E30E94B20F85E362
:101FC0000E94B20FDF91CF9108958F929F92BF929E
:101FD000CF92DF92EF92FF920F931F93CF93DF93F5
:101FE000D82EE92EF62E8A01C62FD0E0C758DE4F34
:101FF00028812F3F09F453C0F894E22FE295EF7047
:10200000F0E031A12F7081E090E001C0880F2A95A7
:10201000EAF7932F982B91A392A18095892382A30D
:1020200078940E94AD0F85E8882E81E0982EED2DE2
:10203000FE2DBF01685F7F4FE12C6801C094D094F2
:10204000D401BD904D0181919191AF014250510950
:10205000BFEFBB1681F12B2D22952F7030E0D901F7
:1020600090962C9130E0BB2DBF7002C0359527951E
:10207000BA95E2F720FD1FC0802B912BDA018D93DA
:102080009C93EE24E394E617F707D1F688818F3FFF
:1020900011F00E94B20F6E2D8F2D0E94AF0FDF91B5
:1020A000CF911F910F91FF90EF90DF90CF90BF9055
:1020B0009F908F9008958C219D21DA018D939C93A0
:1020C000E2CF0E94C90F88E0EEE8F2E0DF01982F2E
:1020D0001D929A95E9F7E6E8F2E0DF011D928A95F4
:1020E000E9F784E00E94CB100E94DB020895CF92B2
:1020F000DF92FF920F931F93CF93DF93CDB7DEB79D
:1021000028970FB6F894DEBF0FBECDBF8E010F5FCC
:102110001F4F88E0F80111928A95E9F7F12CCC2441
:10212000C394D12CA6016F2DC8010E94E50FF39432
:10213000CC0CDD1CFCE0FF12F5CF48E050E0B8010C
:1021400086E892E00E94CE2321E0009709F420E087
:10215000892B41F088E0F801A6E8B2E001900D92E9
:102160008A95E1F744E06EE872E086E892E00E942A
:10217000CC10182F0E94DE02812F28960FB6F894FB
:10218000DEBF0FBECDBFDF91CF911F910F91FF90AA
:10219000DF90CF9008950895CF92DF92EF92FF9253
:1021A0001F93CF93DF936C017B01C42F222349F04F
:1021B00081E0809345020E947A1B909344028093B1
:1021C00043021091450211110AC010E0812FDF91E6
:1021D000CF911F91FF90EF90DF90CF900895809165
:1021E0004302909144020E94921B059770F3D0E045
:1021F000CC0FDD1FAE01B601C7010E94CE23892B93
:1022000041F0AE01B601C7010E94DB2310924502E6
:10221000DDCF10E0FBCF0E94C11D0E94EB0C0E949D
:10222000CE1D08950E94D31D0E94F60C0E94ED1D44
:1022300008950E94131B0E94A71D0E94D10C0E94AA
:102240000B110E9412110E94E10CFBCF80914C02F5
:1022500080FF0DC06091070170E0660F771F603846
:10226000710570F56115710569F1862F089581FF7B
:1022700007C06091070184E0689FB0011124EFCF8F
:102280006091070182FD0AC080914B028823A9F06A
:102290002091060160910701821710F088E0ECCFD1
:1022A000869FC001112433E0880F991F3A95E1F70A
:1022B000622F70E00E946223D2CF68E070E0D5CF39
:1022C0008FE7089581E0089580914C0280FF0CC053
:1022D0006091030170E07595679575956795611537
:1022E000710549F1862F089581FF06C060910301B1
:1022F00070E075956795F3CF6091030182FD0BC087
:1023000090914A029923A1F060910201809103010A
:10231000961738F0682F70E06038710500F38FE78A
:102320000895899FC001112470E00E946223F4CFB8
:1023300061E070E0D7CF81E00895803F31F40E94E2
:1023400026118195809350020895813F19F40E94CF
:102350002611F8CF823F31F40E9426118195809397
:102360004F020895833F19F40E942611F8CF893F48
:1023700029F40E9464118093510208958A3F21F448
:102380000E9464118195F7CF8B3F31F40E94641154
:1023900081958093520208958C3F19F40E94641134
:1023A000F8CF9CE0980F953070F4845F990B21E092
:1023B00030E001C0220F8A95EAF780914E02822B0D
:1023C00080934E0208958D3F31F480914C028160DC
:1023D00080934C0208958E3F21F480914C028260DC
:1023E000F7CF8F3FB9F780914C028460F1CF4091D5
:1023F0004F02803F59F48091500287FF0DC0109228
:10240000500241110BC010924B0208C0813F81F471
:102410008091500218169CF3442381F08091510260
:1024200090915202892B09F05AC010924A020895E5
:10243000823F49F447FFF0CF10924F028091500243
:102440008111ECCFE0CF833F19F41416ACF3E4CF45
:1024500090915102893F29F41916F4F61092510215
:10246000DBCF8A3F19F497FFD7CFF8CF9091520274
:102470008B3F29F497FFD0CF10925202CDCF8C3FE3
:1024800019F41916CCF3C8CF9CE0980F953090F44E
:10249000845F990B21E030E0B90102C0660F771F1D
:1024A0008A95E2F7CB01809590914E028923809323
:1024B0004E02B2CF8D3F31F480914C028E7F8093DB
:1024C0004C02AACF8E3F21F480914C028D7FF7CF32
:1024D0008F3F09F0A1CF80914C028B7FF0CF089500
:1024E0000E947A1B9C0190914F0280915002982B80
:1024F00021F030934902209348029091510280913B
:102500005202982B21F030934702209346028DE42B
:1025100092E00E94CE19089586E0EDE4F2E0DF013A
:102520001D928A95E9F710924B0210924A0210927E
:102530004C020895FC01828181110EC083818111BA
:102540000BC08481811108C091E08581811101C097
:1025500090E0892F8170089581E0FCCFA6E0B0E083
:10256000E4EBF2E10C94922386E0EDE4F2E0DE018C
:10257000119601900D928A95E1F710924F021092F8
:10258000500210925102109252028B819C81892B31
:1025900089F080914802909149020E94921BAC01FF
:1025A00090914B029923C9F1809108018417150677
:1025B00008F440C08D819E81892B91F08091460264
:1025C000909147020E94921BAC0190914A0299237C
:1025D00009F471C0809104018417150608F479C0CC
:1025E000BE016F5F7F4F8DE492E00E94CA1A811195
:1025F00005C08DE492E00E949A1281110E9470122F
:1026000086E0FE013196ADE4B2E001900D928A952C
:10261000E1F72696E3E00C94AE23209109018AE0CD
:10262000289F900111242417350720F69F5F90936F
:102630004B0202C09F3FD1F71B81112359F00E942A
:1026400026119FEF11160CF491E0899F802D112423
:1026500080934F021C81112359F00E9426119FEF95
:1026600011160CF491E0899F802D11248093500263
:1026700030914F02332309F49DCF20915002222341
:1026800009F498CF45EB3403C0011124992359F084
:1026900090934F0245EB240390011124332339F02A
:1026A0003093500287CF81E080934F02F3CF81E0D7
:1026B000809350027FCF209105018AE0289F9001EE
:1026C00011242417350708F08BCF9F5F90934A029F
:1026D00002C09F3FD1F71D81112359F00E94641160
:1026E0009FEF11160CF491E0899F802D11248093A7
:1026F00051021E81112359F00E9464119FEF11169F
:102700000CF491E0899F802D112480935202309126
:102710005102332309F464CF20915202222309F499
:102720005FCF45EB3403C0011124992359F09093F6
:10273000510245EB240390011124332339F03093E7
:1027400052024ECF81E080935102F3CF81E080931B
:10275000520246CF83E290E00E94E423833289F460
:1027600084E290E00E94E423833059F485E290E013
:102770000E94E42391E0853009F090E0892F817078
:10278000089580E0FCCFCF93C82F6FEF811163E2F3
:1027900083E290E00E94F2236FEFC11163E084E2D4
:1027A00090E00E94F2236FEFC11165E085E290E0B6
:1027B0000E94F223CF910895089586E290E00E944E
:1027C000E423682F70E090E080E008950895CF93AF
:1027D000C62F0E94E6136C2F86E290E00E94F2233F
:1027E000CF91089580E00E94C31360E070E0CB01B8
:1027F0000E94E7130E947F170E94621881E00E94E6
:10280000C31308950E94DC130E94DD130E94E61397
:102810000E94AA13811102C00E94F2130895CF935F
:10282000FB01C281CC2309F19C0122513F4520319B
:10283000310520F582510E947218C0E08C2FCF9193
:10284000089581E00E94430743E062E081E00E9436
:10285000D102F3CF81E00E944F0743E062E081E0C4
:102860000E94D102EBCF82E0F6CF8031FFE59F07D7
:1028700089F381319F45B9F3C1E0E0CF8031EFE5C5
:102880009E07F9F281319F45C9F682E0DBCF2FEF39
:10289000FC0120830895EF92FF920F931F93CF9333
:1028A000DF93EC01062FE881E150E33108F05DC0D1
:1028B000F0E0EC5CFB4D0C94762319828AE08A836D
:1028C000602FCE010E947A1CCDB7DEB7E6E00C94F3
:1028D000AB238981823069F0833071F08130D9F483
:1028E0000E94861B0E947C236A837B838C839D834A
:1028F000E7CF0E94DD13F6CF7E0110E0812F0E940A
:102900009F0FF701928383831F5FF2E0EF0EF11CAC
:102910001430A1F7D5CF602FCE010E944714D0CF3D
:1029200089818230C1F76A817B818C819D810E947F
:102930007C230E94E713C4CF4B816A8189810E9466
:1029400041179827892798279D838C83B9CF2C819D
:102950003D813227232732274B816A8189810E945A
:102960006317AECF0E947F17ABCF8FEF8883A8CFBE
:102970000E9413188983A4CF0E94151898278927CD
:1029800098279A8389839CCF6B8170E089819A8193
:10299000AE014C5F5F4F9827892798270E9418182F
:1029A0008FCF6B8170E089819A81AE014C5F5F4F60
:1029B0009827892798270E943D1882CF0E94621885
:1029C0007FCF0E942F17D6CF6B8170E089819A81CB
:1029D000AE014C5F5F4F9827892798270E94BD174B
:1029E0006FCF6B8170E089819A81AE014C5F5F4F40
:1029F0009827892798270E94E11762CFCF93DF930A
:102A0000EC01FB018281882309F464C1C330FDE538
:102A1000DF07E0F5CA3F9CE5D90730F49E0122505C
:102A20003C4524313105D8F50E94150C9093850260
:102A300080938402C231ECE5DE0709F41FC108F07F
:102A40006EC0C9308CE5D80709F4F2C008F03FC069
:102A5000C530ECE5DE0709F4DBC058F5C3308CE582
:102A6000D80709F4CDC008F0CFC0809184028160FE
:102A7000C230DC4509F4AEC0809184029091850299
:102A80000E94230C0E94C10680E009C0C53AEDE512
:102A9000DE0751F238F4C1369DE5D90729F2DF91FE
:102AA000CF9108959E012D5A3D4523303105B8F749
:102AB000BBCF809184028062C730FCE5DF0709F458
:102AC00089C008F4B1C080918402806483C0CD3095
:102AD0009CE5D90709F4BAC070F4809184028E7F16
:102AE000CB30FCE5DF0709F475C008F4A7C080917E
:102AF00084028D7F6FC0CF309CE5D90709F4B6C042
:102B000008F4A8C0C031FCE5DF0709F4B3C0C13147
:102B1000DC4509F0B1CF809184028F7B5BC0CF3F51
:102B20009CE5D90709F4B4C098F5CA3FFCE5DF0776
:102B300009F472C0B8F4C4319CE5D90709F4B6C0F1
:102B400008F4A2C0C531DC4509F096CF809184021B
:102B500082FB992790F921E0922790FB82F990FB64
:102B600083F938C0CC3F8CE5D80709F477C008F466
:102B700057C0CD3FECE5DE0709F474C080918502B3
:102B80008360CE3FDC4509F077CF8093850274CF18
:102B9000C1368DE5D80709F496C068F4C130EDE57B
:102BA000DE0709F48CC008F477C0C230DD4509F0B7
:102BB00063CF80E085C0CD3A9DE5D907E9F068F4A0
:102BC00090918402892F8E7F90FF8160C53ADD4508
:102BD00009F052CF809384024FCFCE3A8DE5D807CB
:102BE00089F1CF3ADD4509F047CF90918502892FD1
:102BF000877F93FF8860C9CF809185028860C5CFA9
:102C0000809184028260E6CF809184028460E2CF6A
:102C1000809184028860DECF809185028160B5CF8B
:102C2000809185028260B1CF809184028061D2CF91
:102C30000E94C106809184028068CCCF809184027A
:102C40008C60C8CF80918502877F9FCF809184025E
:102C50008B7FC0CF80918402877FBCCF809185021B
:102C60008E7F93CF809185028D7F8FCF809184025C
:102C70008F7EB0CF809184028F7DACCF0E94C10641
:102C8000809184028F77A6CF80918402837FA2CF28
:102C9000809185028C7F79CF80918502982F9095C5
:102CA00091708E7F892B90FB81F96FCF0E94C106B6
:102CB00090918402892F97FB87F980588BCF81E010
:102CC0000E94AF0CD9CE90918402892F8F7E94FF01
:102CD000806180CF81E0E3CEB0E0A0E0E2E7F6E102
:102CE0000C948E23E82FF0E0E45DFD4FD490282F64
:102CF00026952695269530E0F901E453FD4F049181
:102D0000877010E0082E02C0159507950A94E2F727
:102D100001701127F901E454FD4FE490F12C082EC5
:102D200002C0F594E7940A94E2F791E0E922FF24C7
:102D3000F901E455FD4FC491D0E002C0D595C79587
:102D40008A95E2F7C170DD270115110519F081EEB2
:102D50000E94CE03E114F10419F086EE0E94CE0326
:102D60008D2D0E946404E114F10419F086EE0E9496
:102D70001A040115110519F081EE0E941A04CD2BD9
:102D800019F08CE20E946404CDB7DEB7E7E00C9442
:102D9000AA23EF92FF920F931F93CF93DF93EC013F
:102DA000162F0AE08881882309F454C0813009F085
:102DB0004EC08981813099F47E0122E0E20EF11C3F
:102DC0008A810E946404E7012196812F815050F38B
:102DD000EFE9FFE03197F1F700C00000F7CF823054
:102DE00041F47E0182E0E80EF11C8A810E94CE034C
:102DF000EACF833041F47E01E2E0EE0EF11C8A81DD
:102E00000E941A04E0CF843011F02196DDCF2A8190
:102E1000229690E080E0AE014F5F5F4F2053330B6E
:102E20002A30310548F0019778F2EFE9FFE0319759
:102E3000F1F700C00000F7CF089FB001099F700DA7
:102E40001124C901860F971F2981EA01E4CF0E944E
:102E50006C16BACFCDB7DEB7E6E00C94AB2384E0B6
:102E6000089550E0440F551F98E1699F400D511D92
:102E7000112490E6899F400D511D1124CA018796A7
:102E800008950F931F93CF93DF938430C8F4643079
:102E9000B8F44C30A8F40E9431178C010E94E4234E
:102EA000C82FD0E0DC2FCC27C80101960E94E42374
:102EB0009E01282BC901DF91CF911F910F91089599
:102EC00090E080E0F8CF0F931F93CF93DF93122F02
:102ED000032F843078F4643068F44C3058F40E9446
:102EE0003117EC01602F0E94F223612FCE01019671
:102EF0000E94F223DF91CF911F910F910895B0E0CE
:102F0000A0E0E5E8F7E10C948C239CEAC92E90E060
:102F1000D92ED0E0C0E07601B12C20C00E9463021F
:102F200021E030E08C171D0641F03CF0F801EE0F77
:102F3000FF1FEE0DFF1D25913491402F6B2D8C2F1F
:102F40000E9463170F5F1F4F0C30110539F788E19E
:102F5000E80EF11CB39484E0B81619F010E000E01C
:102F6000DDCF219680E6C80ED11CC430D10599F67C
:102F7000CDB7DEB7E9E00C94A823EF92FF920F9350
:102F80001F93CF93DF93EC018A017C01E60EF71EBD
:102F9000CE018796CE15DF0529F4CDB7DEB7E6E082
:102FA0000C94AB23C03821E0D20740F40E94E42304
:102FB000F80180830F5F1F4F2196EACFF80110823E
:102FC000F9CFB0E0A0E0E7EEF7E10C948D237C01AF
:102FD0006A018C01060F171FEC01CE018796C017FE
:102FE000D10729F4CDB7DEB7E8E00C94A923C038A7
:102FF00021E0D20740F4FE01EE19FF09EC0DFD1DA2
:1030000060810E94F2232196E8CF462F843040F45D
:10301000743030F46C3020F4672F0E94411708950B
:1030200090E080E0089580E1089589E592E00895B8
:10303000EF92FF920F931F93CF93DF93EC018A01DE
:103040007C01E60EF71ECE0189559E4FCE15DF0599
:1030500029F4CDB7DEB7E6E00C94AB23C93522E006
:10306000D20740F40E94E423F80180830F5F1F4FD2
:103070002196E9CFF8011082F9CFB0E0A0E0E3E4B7
:10308000F8E10C948D237C016A018C01060F171F57
:10309000EC01CE0189559E4FC017D10729F4CDB759
:1030A000DEB7E8E00C94A923C93522E0D20740F44A
:1030B000FE01EE19FF09EC0DFD1D60810E94F22357
:1030C0002196E7CFCF93DF93C7EAD1E060E0CE014E
:1030D0000E94F2232196C11584E0D807B9F7DF9149
:1030E000CF910895A4E0B0E0E8E7F8E10C948E23D6
:1030F000F82E8FE08F1548F18FEF93E00E94E423C4
:10310000811123C007EA11E0F11023C019821A824D
:103110001B821C82DD24D39478018FEFE81AF80A11
:10312000C8010E94E42389831A82882371F09FEFEB
:10313000980F9330D8F48A83D9820E5F1F4FC7014E
:103140000E94E4238B83811112C02496E7E00C9443
:10315000AA23011584E01807C1F3C8010E94E423E3
:10316000811101C0FA940F5F1F4FCECF870160E03D
:10317000CE0101960E94C916CFCFCF93DF93EB010A
:1031800086319C4511F50E94110B9A81992399F083
:103190008A7A91E009F490E090935302811109C07A
:1031A00089E20E94E90A0E94520B80E0DF91CF91F0
:1031B000089585E3F6CF80915302811104C089E21E
:1031C0000E94F10AF0CF85E3FBCF81E0EFCF0F93B0
:1031D0001F93CF93DF93C42FD22FFC0182818823CA
:1031E000C9F0409356020E947A1B90935502809337
:1031F000540280E28C0F883040F4C77081E001C037
:10320000880FCA95EAF70E946D04DF91CF911F9154
:103210000F91089510915602141332C080915402F8
:10322000909155020E94921B883C910548F5C0E29E
:10323000CD0F1D17B9F080E2810F883040F4177070
:1032400081E001C0880F1A95EAF70E947404C83023
:1032500048F481E09D2F977001C0880F9A95EAF796
:103260000E946D04802F0E946404C83070F6D770ED
:1032700081E001C0880FDA95EAF70E947404C5CF97
:1032800080E28C0F883008F6C77081E001C0880F9B
:10329000CA95EAF7F2CF0F939C01CB01233F4CE58F
:1032A000340759F1A8F4283DFCE53F0701F1293D19
:1032B0004CE53407D1F1273D3C4591F406E221EE7F
:1032C00041EE67ED7CE50E94E71880E00F910895DC
:1032D000253FFCE53F07E9F0B0F0263F3C45F9F01B
:1032E000FC018281882339F110925602EFCF07E268
:1032F00025EE45EE68ED7CE5E6CF06E221EE40EEF8
:1033000063EF7CE5E0CF07E225EE44EE64EF7CE579
:10331000DACF06E221EE42EE65EF7CE5D4CF07E29C
:1033200025EE46EE66EF7CE5CECF08E221E045EEE5
:1033300069ED7CE5C8CF81E0C9CF90939901809376
:103340009801089590935C0280935B020895E09148
:103350005B02F0915C02309729F00190F081E02D42
:103360000995089580E00895E0915B02F0915C0278
:10337000309799F020911601222359F02091840270
:1033800027FF07C0DC012C9111962C93119726E0A2
:103390002C930280F381E02D09950895E0915B0262
:1033A000F0915C02309739F022E0DC012C9304802C
:1033B000F581E02D099508952091590230915A0226
:1033C0002817390771F090935A0280935902E091BF
:1033D0005B02F0915C02309721F00680F781E02DCE
:1033E00009950895209157023091580228173907FE
:1033F00071F09093580280935702E0915B02F09134
:103400005C02309721F00084F185E02D0995089544
:10341000FC01329680911601882321F0809184026C
:103420009EE187FF96E080E0915008F40895219195
:103430002223D1F38F5FF8CF662301F1209116018B
:103440002223F1F02091840227FF1AC0462F4695CF
:10345000469546954E3190F4677021E030E002C009
:10346000220F331F6A95E2F7840F911DFC018281C0
:1034700090E02823392381E0232B69F480E008952C
:10348000FC01329608962191261721F0E817F907DA
:10349000D1F7F4CF81E008959C01FC0132969FEFB3
:1034A00080E04191461751F09F3F19F4411101C04E
:1034B000982F8F5F8630A9F79F3F09F40895290F51
:1034C000311D97FD3A95F90162830895FC0132960A
:1034D00008962191261303C0DF0111971C92E8176B
:1034E000F907B9F70895E62FE695E695E695EE31EA
:1034F00068F4E80FF92FF11D677021E030E001C09A
:10350000220F6A95EAF78281822B82830895E62F43
:10351000E695E695E695EE3170F4E80FF92FF11D8A
:10352000677021E030E001C0220F6A95EAF720952C
:10353000828128232283089520911601222339F0C5
:103540002091840227FF03C00E94731A08950E94ED
:103550004C1A089520911601222339F020918402FB
:1035600027FF03C00E94871A08950E94661A0895D3
:10357000FC01329680911601882351F080918402DB
:1035800087FF06C08EE1DF011D928A95E9F7089555
:1035900086E0F9CF46E050E00E94CE2321E0892B5F
:1035A00009F420E0822F089508950E94D41A089506
:1035B000811106C081E080935D020E94D51A0895B2
:1035C00082E0F9CF83E080935D020E94D51A0895CE
:1035D0000E94D81A089581E080935D020E94D51A56
:1035E00008950E94EB1A0895089508950E94F51A0F
:1035F0000895089508950E94F41A0895CF930E94A3
:10360000F91A0E9477100E94FA1AC0E08C2F0E94CB
:103610009F0F892B31F4CF5FC430C1F780E0CF9189
:10362000089581E0FCCF85B7806885BF85B7806845
:1036300085BF08951F921FB61F9211248F939F93E9
:10364000AF93BF9380915E02811113C08091960267
:1036500090919702A0919802B09199024196A11D74
:10366000B11D8093960290939702A0939802B09315
:103670009902BF91AF919F918F911F901FBE1F9094
:10368000189580919E02843031F10E94540310926B
:103690005E0288E190E020E40FB6F894A89580934C
:1036A00060000FBE2093600083B7817F846083BF7A
:1036B00083B7816083BF7894889583B78E7F83BFFB
:1036C0000FB6F894A895809160008861809360009F
:1036D000109260000FBE08950E94C1060E94590317
:1036E000089582E084BD93E095BD9AEF97BD8093E5
:1036F0006E0008952FB7F8948091960290919702EA
:10370000A0919802B09199022FBF08952FB7F89415
:10371000609196027091970280919802909199021F
:103720002FBF08959C014FB7F89480919602909115
:103730009702A0919802B09199024FBF821B930B00
:10374000089578941F921FB61F9211248F939F9310
:10375000AF93BF938091960290919702A0919802A7
:10376000B09199020196A11DB11D8093960290938C
:103770009702A0939802B0939902BF91AF919F9145
:103780008F911F901FBE1F90189587E797E7909322
:1037900001088093000888E19AE00FB6F894A89594
:1037A000809360000FBE90936000FFCF88E19AE0A5
:1037B0000FB6F894A895809360000FBE90936000B8
:1037C000FFCF80918202089508959C0184E0809348
:1037D000E9009FEF8091E800915085FD06C085EDDE
:1037E0008A95F1F700009111F5CF8091E80085FFEF
:1037F0000CC050E040E066E070E0C9010E948C1E01
:103800008091E8008E778093E8000895CF93DF934E
:10381000EC01809116018823B1F18091840287FF29
:1038200032C060E284E08093E9008FEF9091E8007D
:10383000815095FD06C095ED9A95F1F70000811134
:10384000F5CF8091E80085FF1BC08091160170E0E4
:1038500050E040E0811104C050E040E068E070E0DA
:10386000CE010E948C1E8091E8008E778093E80044
:1038700080E2FE01A2E6B2E001900D928A95E1F7A6
:10388000DF91CF91089568E081E0CDCF80935F0212
:10389000709361026093600280919E028430F9F41B
:1038A0008093E9008FEF9091E800815095FD06C06C
:1038B00095ED9A95F1F700008111F5CF8091E80020
:1038C00085FF0DC050E040E063E070E08FE592E0DE
:1038D0000E948C1E8091E8008E778093E800089506
:1038E000BC0184E00E94461C0895BC0183E00E9454
:1038F000461C0895CF93FC01603221F580919E0211
:10390000843001F5C091E900CF702091EC00922F36
:10391000917020FD90E8C92B82E08093E9008091AE
:10392000E80080FF0CC050E040E060E270E0CF01B2
:103930000E948C1E8091E8008E778093E800CF7003
:10394000C093E900CF91089580919D02811109C033
:103950000E946B200E94C8208091E20084608093C6
:10396000E200089510929D0208950E94EB1A0895B6
:1039700060919A0281E0611101C080E00E94E21A28
:10398000089590919E0281E0943009F080E060916A
:103990009A020E94E81A089542E061EC81E00E94D8
:1039A000E71F42E261EC84E00E94E71F42E261EC23
:1039B00082E00E94E71F42E260EC83E00E94E71F82
:1039C00090919E0281E0943009F080E060919A022B
:1039D0000E94D81A08958091A002833009F463C030
:1039E00030F48130E1F1823009F4A0C008958A30CA
:1039F00009F48CC08B3009F471C0893009F052C0D1
:103A000080919F02813209F04DC08091A302909174
:103A1000A402009719F0029709F044C08091E800D1
:103A2000877F8093E8008091E80082FF37C0909103
:103A3000F3008091F200029731F48091F10081301F
:103A400011F0863021F48091F10080938202809100
:103A5000E8008B778093E8000E941B2023C08091B0
:103A60009F02813AF9F48091E800877F8093E80013
:103A70008091A3029091A402892B61F460E282E616
:103A800092E070E00E942A1F8091E8008B7780937B
:103A9000E800089560E090E080E0F3CF80919E021E
:103AA0008111C1CF089580919F02813AD9F7809109
:103AB000A3029091A402892BA9F78091E800877F47
:103AC0008093E8008091E80080FFFCCF8091160190
:103AD0008093F1008091E8008E77BCCF80919F02A7
:103AE000813201F78091A3029091A402892BD1F633
:103AF0008091E800877F8093E8000E941B208091DE
:103B0000A102809316010E94C106089580919F0230
:103B1000813241F68091E800877F8093E8000E941F
:103B20001B208091A20280938302089580919F02BE
:103B3000813A09F0B7CF8091E800877F8093E80051
:103B40008091E80080FFFCCF80918302C1CF84B7D1
:103B5000877F84BF0FB6F894A89580916000886134
:103B600080936000109260000FBE80E890E00FB676
:103B7000F89480936100909361000FBE0E94F11A47
:103B800008950E946B200E94C820E2EEF0E0808140
:103B90008460808378940E94472308958AE091E0AE
:103BA0000E94A219089580919E02853031F480917F
:103BB0009E02853019F00E946C1B08950E94411BE3
:103BC00080919C02882399F30E94FE1A882379F33E
:103BD0000E94761E0E94C106EACFA0E2B0E0E3EFA9
:103BE000FDE10C94932380919E02843009F583E0DB
:103BF0008093E9008091E80082FF1AC08091E8007C
:103C000090E085FF09C050E040E060E270E0CE0146
:103C100001960E94DB1E91E08091E8008B778093F3
:103C2000E800992329F060E2CE0101960E944B142E
:103C3000A096E2E00C94AF230E941F1E0895292F46
:103C400033272330310521F168F42130310509F49F
:103C500043C02230310509F444C090E080E030E0F8
:103C600020E026C02132310551F122323105A9F779
:103C70006330710590F7FB01EE0FFF1FE457FE4F15
:103C80002081318167577E4FFB01808190E010C019
:103C900099278130910581F0009729F00297E9F684
:103CA000ECEDF2E002C0EEEFF2E0849190E09F01D3
:103CB000FA01318320830895E2EFF2E0F6CF63301A
:103CC000710558F6660F771FFB01EE56FE4F2081F7
:103CD000318189E090E0ECCF82E190E02DE533E0A6
:103CE000E7CF8BE590E022E033E0E2CF80E189BDD1
:103CF00082E189BD09B400FEFDCF8091D8008F7D9F
:103D00008093D8008091E00082608093E0008091F1
:103D1000E00081FDFCCF0895AF92BF92CF92DF9279
:103D2000FF920F931F93CF93DF936C01EB018A01F6
:103D30000E943A20F82E811123C00115110539F097
:103D4000F80180819181C81BD90BC80ED91EB12CF6
:103D5000A12C2097A9F08091E80085FD22C08091D8
:103D6000E8008E778093E80001151105A1F0F801B5
:103D700080819181A80EB91EB182A08285E0F82EC3
:103D80008F2DDF91CF911F910F91FF90DF90CF90FA
:103D9000BF90AF9008950E943A208823D1F2F82E68
:103DA000EFCFF60181916F018093F1002197FFEF32
:103DB000AF1ABF0ACECFAF92BF92CF92DF92FF92DF
:103DC0000F931F93CF93DF936C01EB018A010E9445
:103DD0003A20F82E811123C00115110539F0F801A0
:103DE00080819181C81BD90BC80ED91EB12CA12C82
:103DF0002097A9F08091E80085FD22C08091E8001D
:103E00008B778093E80001151105A1F0F8018081FE
:103E10009181A80EB91EB182A08285E0F82E8F2D67
:103E2000DF91CF911F910F91FF90DF90CF90BF90C6
:103E3000AF9008950E943A208823D1F2F82EEFCF58
:103E40008091F100F60181936F012197FFEFAF1A86
:103E5000BF0ACECFFC018091A5029091A6028617E1
:103E60009707A0F06115710529F49091E8009E77FD
:103E70009093E80090E06115710551F4911108C02C
:103E80008091E80082FF34C080E00895BC01F2CF49
:103E900080919E028823C1F18530C1F18091E800B4
:103EA00083FD30C08091E80082FDEACF8091E80078
:103EB00080FFE1CF8091F3002091F200382F61154F
:103EC000710519F02830310558F091E0283031059E
:103ED00009F090E02091E8002E772093E800CBCF06
:103EE00081918093F100615071092F5F3F4FE7CFBF
:103EF00080919E02882341F0853041F08091E80056
:103F000083FFBECF81E0089582E0089583E00895A5
:103F1000FC018091A5029091A60286179707A0F058
:103F20006115710529F48091E8008E778093E8008F
:103F300090E06115710551F4911108C08091E8007D
:103F400082FF35C080E00895BC01F2CF80919E02CF
:103F50008823C9F18530C9F18091E80083FD31C023
:103F60008091E80082FDEACF8091E80080FFE1CFF8
:103F70008091F3002091F200382F6115710519F03E
:103F80002830310558F091E02830310509F090E0F3
:103F90008091E8008E778093E800CBCF8491809366
:103FA000F1003196615071092F5F3F4FE6CF80914C
:103FB0009E02882341F0853041F08091E80083FF24
:103FC000BDCF81E0089582E0089583E00895982FA1
:103FD000973028F08F708093E90081E008959093E6
:103FE000E900242F762F50E0981731F07091EC0003
:103FF0002091ED005091F00021FD02C09F5FE8CFBD
:104000003091EB003E7F3093EB003091ED003D7F2F
:104010003093ED003091EB0031603093EB00709302
:10402000EC002093ED005093F0002091EE0027FD6E
:10403000E5CF80E0089580919F0287FF13C08091B3
:10404000E80082FF06C08091E8008B778093E8004B
:1040500004C080919E028111F2CF089580919E024A
:104060008823D9F38091E80080FFF8CF8091E800A1
:104070008E77ECCF2091E4003091E50095E6A90120
:104080002091EC00822F817020FF06C08091E80013
:1040900080FF06C080E008952091E80022FD1AC04C
:1040A00080919E02882389F0853089F08091EB0011
:1040B00085FD0FC02091E4003091E50042175307C1
:1040C000F9F29150E1F684E0089582E0089583E0EA
:1040D000089581E008950E94DA200E94E220E0EE37
:1040E000F0E0808181608083E8EDF0E080818F776F
:1040F000808319BCA7EDB0E08C918E7F8C9380817A
:104100008F7E808310929D0208950F931F93CF930B
:10411000DF930E94DA200E94E220C8EDD0E088817F
:104120008F77888388818068888388818F7D888362
:1041300019BC10929E0210929A0210929C02109248
:104140009B0200EE10E0F80180818B7F80838881E4
:104150008160888342E060E080E00E94E71FE1EE3A
:10416000F0E080818E7F8083E2EEF0E080818160EC
:104170008083808188608083F80180818E7F808346
:10418000888180618883DF91CF911F910F9108957D
:10419000E8EDF0E080818F7E8083E7EDF0E08081C4
:1041A0008160808384E082BF81E080939D020E94D1
:1041B00085200895E8EDF0E080818E7F8083109265
:1041C000E20008951092DA001092E10008951F9223
:1041D0000F920FB60F9211242F933F934F935F933B
:1041E0006F937F938F939F93AF93BF93EF93FF93BF
:1041F0008091E10082FF0BC08091E20082FF07C046
:104200008091E1008B7F8093E1000E9446238091A2
:10421000DA0080FF19C08091D80080FF15C080911E
:10422000DA008E7F8093DA008091D90080FF96C0FB
:1042300080E189BD82E189BD09B400FEFDCF81E046
:1042400080939E020E94A41C8091E10080FF19C00F
:104250008091E20080FF15C08091E2008E7F809304
:10426000E2008091E20080618093E2008091D800BA
:1042700080628093D80019BC85E080939E020E94E2
:10428000B81C8091E10084FF2BC08091E20084FF84
:1042900027C080E189BD82E189BD89B5982F9170E1
:1042A00080FFFBCF8091D8008F7D8093D8008091D4
:1042B000E1008F7E8093E1008091E2008F7E809309
:1042C000E2008091E20081608093E20080919A0296
:1042D000882309F449C084E080939E020E94C11C97
:1042E0008091E10083FF29C08091E20083FF25C017
:1042F0008091E100877F8093E10082E080939E02BD
:1043000010929A028091E1008E7F8093E10080916B
:10431000E2008E7F8093E2008091E20080618093D2
:10432000E20042E060E080E00E94E71F8091F00040
:1043300088608093F0000E94B51CFF91EF91BF91BF
:10434000AF919F918F917F916F915F914F913F912D
:104350002F910F900FBE0F901F90189519BC1092BF
:104360009E020E94B21C70CF8091E30087FD93E013
:1043700090939E02B3CF1F920F920FB60F9211240B
:104380002F933F934F935F936F937F938F939F935D
:10439000AF93BF93CF93DF93EF93FF93D091E90057
:1043A000DF708091EC00C82FC17080FDC0E81092D2
:1043B000E9008091F000877F8093F00078940E945C
:1043C000FF211092E9008091F00088608093F00056
:1043D000CD2BCF70C093E900FF91EF91DF91CF918A
:1043E000BF91AF919F918F917F916F915F914F910D
:1043F0003F912F910F900FBE0F901F901895AAE23A
:10440000B0E0E5E0F2E20C9492238FE992E0209193
:10441000F100FC012193CF01F2E0873A9F07B9F741
:104420000E94EB1C8091E80083FF1EC180919F02D7
:104430009091A0029A3008F017C1E92FF0E0E95BF3
:10444000FB4D0C947623803899F0823809F00CC12A
:104450008091A3028F70873008F006C18093E90035
:104460008091EB0085FB882780F91092E90006C057
:1044700080919B0290919C02911182609091E80042
:10448000977F9093E8008093F1001092F100809163
:10449000E8008E77E5C0882309F4D3C0823009F0A4
:1044A000E3C08091A1028111D6C08091A3028F70D8
:1044B0002FEF280F263008F0D7C08093E900209115
:1044C000EB0020FFC8C0933031F48091EB00806294
:1044D0008093EB00C0C09091EB0090619093EB0053
:1044E00021E030E001C0220F8A95EAF72093EA002C
:1044F0001092EA008091EB008860EACF8111B4C08D
:104500001091A1021F778091E3008078812B809326
:10451000E3008091E800877F8093E8000E941B20E1
:104520008091E80080FFFCCF8091E3008068809359
:10453000E30082E0111183E080939E0295C08058D1
:10454000823008F091C08091A1029091A2028C3D2E
:1045500023E09207A1F583E08A838AE289834FB73B
:10456000F894DE01139620E03EE051E2E32FF0E004
:1045700050935700E49120FF03C0E295EF703F5F36
:10458000EF708E2F90E0EA30C0F0C7968D939D9328
:104590002F5F243159F74FBF8091E800877F8093C8
:1045A000E8006AE270E0CE0101960E942A1F809125
:1045B000E8008B778093E80057C0C096E7CF609102
:1045C000A3027091A402AE014F5F5F4F0E941C1EB8
:1045D000BC01892B09F448C09091E800977F909323
:1045E000E80089819A810E94881FE1CF8038E1F537
:1045F0008091E800877F8093E80080919A02809301
:10460000F10045CF811130C09091A102923060F548
:104610008091E800877F8093E80090939A020E943F
:104620001B2080919A02882311F084E005C08091BC
:10463000E30087FDFACF81E080939E020E94CC1CAC
:1046400013C08091A102813079F481E0933009F0A8
:1046500080E080939C021092E9008091E800877FBF
:104660008093E8000E941B208091E80083FF0AC02D
:104670008091E800877F8093E8008091EB00806262
:104680008093EB00AA96E3E00C94AE230895CF93B9
:1046900080919E028823A1F0C091E900CF70909193
:1046A000EC00892F817090FD80E8C82B1092E90002
:1046B0008091E80083FD0E94FF21CF70C093E90044
:1046C000CF91089597FB072E16F4009407D077FD3D
:1046D00009D00E94BA2307FC05D03EF4909581953D
:1046E0009F4F0895709561957F4F0895EE0FFF1FBE
:1046F0000590F491E02D099469279627692778277A
:104700008727782708952F923F924F925F926F925A
:104710007F928F929F92AF92BF92CF92DF92EF9251
:10472000FF920F931F93CF93DF93CDB7DEB7CA1BD2
:10473000DB0B0FB6F894DEBF0FBECDBF09942A88FD
:10474000398848885F846E847D848C849B84AA84A5
:10475000B984C884DF80EE80FD800C811B81AA8132
:10476000B981CE0FD11D0FB6F894DEBF0FBECDBFFD
:10477000ED010895AA1BBB1B51E107C0AA1FBB1F77
:10478000A617B70710F0A61BB70B881F991F5A95DD
:10479000A9F780959095BC01CD010895FB01DC013E
:1047A00004C08D910190801921F441505040C8F708
:1047B000881B990B0895FB01DC0102C001900D924A
:1047C00041505040D8F70895F999FECF92BD81BD70
:1047D000F89A992780B50895A8E1B0E042E050E04A
:1047E0000C941824262FF999FECF92BD81BDF89A1A
:1047F000019700B4021639F01FBA20BD0FB6F89425
:10480000FA9AF99A0FBE08950396272F0E94F32370
:104810000E94F223252F0E94F323242F0C94F323CC
:104820000196272F0E94F3230C94F223DC01CB0185
:10483000FC01F999FECF06C0F2BDE1BDF89A3196B0
:1048400000B40D9241505040B8F70895F894FFCF4E
:10485000B604B604E704E7047405900516051605CA
:104860009B050206110611065D14691490149C1430
:10487000A714B214B514B514B514B514B514B814FE
:10488000BC14C414D114DE14E114E414F114232272
:104890004B2234234B2234237E229F223423F622C0
:0248A0000223F1
:1048A2000E02280850011E0A1401E11B061CE51B1A
:1048B200751C701CE41B01E200E900EA00B500B6B9
:1048C20000B700CD008301CC008A0192019401213E
:1048D20002230224022502260227022A02B300B47E
:1048E200006F007000818283E200E900EA00B500F7
:1048F200B600B700CD008301CC008A019201940179
:104902002102230224022502260227022A02B300E0
:10491200B4006F007000818283F5F6F7313332C63E
:104922009766949091F43436354022B647046F036B
:08493200910314032D034D0352
:00000001FF
